{
  "contractName": "Crud",
  "abi": [
    {
      "inputs": [],
      "name": "nextId",
      "outputs": [
        {
          "internalType": "uint256",
          "name": "",
          "type": "uint256"
        }
      ],
      "stateMutability": "view",
      "type": "function"
    },
    {
      "inputs": [
        {
          "internalType": "uint256",
          "name": "",
          "type": "uint256"
        }
      ],
      "name": "player",
      "outputs": [
        {
          "internalType": "uint256",
          "name": "id",
          "type": "uint256"
        },
        {
          "internalType": "string",
          "name": "name",
          "type": "string"
        }
      ],
      "stateMutability": "view",
      "type": "function"
    },
    {
      "inputs": [
        {
          "internalType": "string",
          "name": "name",
          "type": "string"
        }
      ],
      "name": "createPlayer",
      "outputs": [],
      "stateMutability": "nonpayable",
      "type": "function"
    },
    {
      "inputs": [
        {
          "internalType": "uint256",
          "name": "id",
          "type": "uint256"
        }
      ],
      "name": "readPlayer",
      "outputs": [
        {
          "internalType": "uint256",
          "name": "",
          "type": "uint256"
        },
        {
          "internalType": "string",
          "name": "",
          "type": "string"
        }
      ],
      "stateMutability": "view",
      "type": "function"
    },
    {
      "inputs": [
        {
          "internalType": "uint256",
          "name": "id",
          "type": "uint256"
        },
        {
          "internalType": "string",
          "name": "_name",
          "type": "string"
        }
      ],
      "name": "uploadPlayer",
      "outputs": [],
      "stateMutability": "nonpayable",
      "type": "function"
    },
    {
      "inputs": [
        {
          "internalType": "uint256",
          "name": "id",
          "type": "uint256"
        }
      ],
      "name": "deletePlayer",
      "outputs": [],
      "stateMutability": "nonpayable",
      "type": "function"
    }
  ],
  "bytecode": "0x60806040526001805534801561001457600080fd5b50610a7c806100246000396000f3fe608060405234801561001057600080fd5b50600436106100625760003560e01c806361b8ce8c146100675780637059194e14610085578063795140d7146100a15780639e0551c6146100bd578063a3f6b80b146100ee578063b586a7401461011f575b600080fd5b61006f61013b565b60405161007c91906105a9565b60405180910390f35b61009f600480360381019061009a9190610604565b610141565b005b6100bb60048036038101906100b69190610777565b61018f565b005b6100d760048036038101906100d29190610604565b6101db565b6040516100e592919061085b565b60405180910390f35b61010860048036038101906101039190610604565b610297565b60405161011692919061085b565b60405180910390f35b6101396004803603810190610134919061088b565b610389565b005b60015481565b600061014c8261040f565b905060008181548110610162576101616108d4565b5b906000526020600020906002020160008082016000905560018201600061018991906104ad565b50505050565b600061019a8361040f565b905081600082815481106101b1576101b06108d4565b5b906000526020600020906002020160010190805190602001906101d59291906104ed565b50505050565b600081815481106101eb57600080fd5b906000526020600020906002020160009150905080600001549080600101805461021490610932565b80601f016020809104026020016040519081016040528092919081815260200182805461024090610932565b801561028d5780601f106102625761010080835404028352916020019161028d565b820191906000526020600020905b81548152906001019060200180831161027057829003601f168201915b5050505050905082565b6000606060006102a68461040f565b9050600081815481106102bc576102bb6108d4565b5b906000526020600020906002020160000154600082815481106102e2576102e16108d4565b5b90600052602060002090600202016001018080546102ff90610932565b80601f016020809104026020016040519081016040528092919081815260200182805461032b90610932565b80156103785780601f1061034d57610100808354040283529160200191610378565b820191906000526020600020905b81548152906001019060200180831161035b57829003601f168201915b505050505090509250925050915091565b6000604051806040016040528060015481526020018381525090806001815401808255809150506001900390600052602060002090600202016000909190919091506000820151816000015560208201518160010190805190602001906103f19291906104ed565b5050506001600081548092919061040790610992565b919050555050565b600080600090505b60008054905081101561046c578260008281548110610439576104386108d4565b5b9060005260206000209060020201600001540361045957809150506104a8565b808061046490610992565b915050610417565b506040517f08c379a000000000000000000000000000000000000000000000000000000000815260040161049f90610a26565b60405180910390fd5b919050565b5080546104b990610932565b6000825580601f106104cb57506104ea565b601f0160209004906000526020600020908101906104e99190610573565b5b50565b8280546104f990610932565b90600052602060002090601f01602090048101928261051b5760008555610562565b82601f1061053457805160ff1916838001178555610562565b82800160010185558215610562579182015b82811115610561578251825591602001919060010190610546565b5b50905061056f9190610573565b5090565b5b8082111561058c576000816000905550600101610574565b5090565b6000819050919050565b6105a381610590565b82525050565b60006020820190506105be600083018461059a565b92915050565b6000604051905090565b600080fd5b600080fd5b6105e181610590565b81146105ec57600080fd5b50565b6000813590506105fe816105d8565b92915050565b60006020828403121561061a576106196105ce565b5b6000610628848285016105ef565b91505092915050565b600080fd5b600080fd5b6000601f19601f8301169050919050565b7f4e487b7100000000000000000000000000000000000000000000000000000000600052604160045260246000fd5b6106848261063b565b810181811067ffffffffffffffff821117156106a3576106a261064c565b5b80604052505050565b60006106b66105c4565b90506106c2828261067b565b919050565b600067ffffffffffffffff8211156106e2576106e161064c565b5b6106eb8261063b565b9050602081019050919050565b82818337600083830152505050565b600061071a610715846106c7565b6106ac565b90508281526020810184848401111561073657610735610636565b5b6107418482856106f8565b509392505050565b600082601f83011261075e5761075d610631565b5b813561076e848260208601610707565b91505092915050565b6000806040838503121561078e5761078d6105ce565b5b600061079c858286016105ef565b925050602083013567ffffffffffffffff8111156107bd576107bc6105d3565b5b6107c985828601610749565b9150509250929050565b600081519050919050565b600082825260208201905092915050565b60005b8381101561080d5780820151818401526020810190506107f2565b8381111561081c576000848401525b50505050565b600061082d826107d3565b61083781856107de565b93506108478185602086016107ef565b6108508161063b565b840191505092915050565b6000604082019050610870600083018561059a565b81810360208301526108828184610822565b90509392505050565b6000602082840312156108a1576108a06105ce565b5b600082013567ffffffffffffffff8111156108bf576108be6105d3565b5b6108cb84828501610749565b91505092915050565b7f4e487b7100000000000000000000000000000000000000000000000000000000600052603260045260246000fd5b7f4e487b7100000000000000000000000000000000000000000000000000000000600052602260045260246000fd5b6000600282049050600182168061094a57607f821691505b60208210810361095d5761095c610903565b5b50919050565b7f4e487b7100000000000000000000000000000000000000000000000000000000600052601160045260246000fd5b600061099d82610590565b91507fffffffffffffffffffffffffffffffffffffffffffffffffffffffffffffffff82036109cf576109ce610963565b5b600182019050919050565b7f506c6179657220646f6573206e6f742065786973740000000000000000000000600082015250565b6000610a106015836107de565b9150610a1b826109da565b602082019050919050565b60006020820190508181036000830152610a3f81610a03565b905091905056fea264697066735822122034c34382c6ee2c2ca9e576d4e19e1060503343d065a7b2ced8dafea41c2a04fa64736f6c634300080d0033",
  "immutableReferences": {},
  "source": "pragma solidity >=0.7.0 <0.9.0;\r\n\r\ncontract Crud{\r\n\r\n    struct Player{ //chua cac du lieu nguoi dung\r\n        uint256 id;\r\n        string name;\r\n    }\r\n\r\n    Player[] public player; //luu tru player, mang y nghia 1 kieu du lieu, luu tru duoi dang array\r\n\r\n    uint256 public nextId = 1;\r\n\r\n    function createPlayer(string memory name) public {\r\n        player.push(Player(nextId, name)); //push vao array\r\n        nextId++; //cong them id moi\r\n    }\r\n\r\n    function readPlayer(uint256 id) public view returns (uint256, string memory) {\r\n        uint256 i = loopId(id);\r\n        return (player[i].id, player[i].name);\r\n    }\r\n\r\n    function uploadPlayer(uint256 id, string memory _name) public {\r\n        uint256 i = loopId(id);\r\n        player[i].name = _name;\r\n    }\r\n\r\n    function deletePlayer(uint256 id) public {\r\n        uint256 i = loopId(id);\r\n        delete(player[i]);\r\n    }\r\n\r\n    function loopId(uint256 id) internal view returns (uint256 _id){\r\n        for(uint256 i = 0; i < player.length; i++){\r\n            if(player[i].id == id){\r\n                return i;\r\n            }\r\n        }\r\n        revert(\"Player does not exist\");\r\n    }\r\n}",
  "sourcePath": "C:\\D\\30dayswithdapps\\boxes\\contracts\\Crud.sol",
  "compiler": {
    "name": "solc",
    "version": "0.8.13+commit.abaa5c0e.Emscripten.clang"
  },
  "schemaVersion": "3.4.11",
  "updatedAt": "2023-04-21T06:05:56.389Z",
  "devdoc": {
    "kind": "dev",
    "methods": {},
    "version": 1
  },
  "userdoc": {
    "kind": "user",
    "methods": {},
    "version": 1
  }
}